00COTAHIST.2021BOVESPA 20210331                                                                                                                                                                                                                      
012021033102A1AP34      010ADVANCE AUTODRN          R$  000000000664000000000066400000000006521000000000655300000000065300000000006350000000000680000007000000000000003112000000000020394508000000000000009999123100000010000000000000BRA1APBDR001106
012021033102A1BB34      010ABB LTD     DRN ED       R$  000000000433200000000043320000000004318000000000433000000000043180000000004000000000000439300003000000000000000025000000000000108274000000000000009999123100000010000000000000BRA1BBBDR009101
012021033102A1BM34      010ABIOMED INC DRN          R$  000000004380000000000451500000000043800000000004511700000000451500000000000000000000000000000003000000000000000205000000000009249000000000000000009999123100000010000000000000BRA1BMBDR006100
012021033102A1CR34      010AMCOR PLC   DRN          R$  000000000653500000000065350000000006505000000000651300000000065100000000006500000000000662600005000000000000000009000000000000058620000000000000009999123100000010000000000000BRA1CRBDR003102
012021033102A1DI34      010ANALOG DEVICDRN          R$  000000004413000000000441300000000043620000000004394500000000440700000000000000000000000000000004000000000000000006000000000000263670000000000000009999123100000010000000000000BRA1DIBDR000105
012021033102A1EE34      010AMEREN CORP DRN          R$  000000002330000000000233000000000023300000000002330000000000233000000000019000000000000000000001000000000000000001000000000000023300000000000000009999123100000010000000000000BRA1EEBDR007105
012021033102A1EG34      010AEGON NV    DRN          R$  000000000273600000000027360000000002658000000000266800000000026580000000002646000000000270000017000000000000000144000000000000384328000000000000009999123100000010000000000000BRA1EGBDR002100
012021033102A1ES34      010AES CORP    DRN          R$  000000001520000000000152700000000015200000000001520800000000152700000000000000000000000000000002000000000000000008000000000000121670000000000000009999123100000010000000000000BRA1ESBDR007105
012021033102A1FL34      010AFLAC INC   DRN          R$  000000002958000000000295800000000029000000000002928600000000290000000000000000000000000000000003000000000000000009000000000000263580000000000000009999123100000010000000000000BRA1FLBDR009105
012021033102A1GI34      010AGILENT TECHDRN          R$  000000003590000000000359000000000035900000000003590000000000359000000000000000000000000000000001000000000000000001000000000000035900000000000000009999123100000010000000000000BRA1GIBDR003104
012021033102A1GN34      010ALLEGION PLCDRN          R$  000000003576100000000358000000000035220000000003574300000000356100000000035280000000000000000006000000000000000020000000000000714875000000000000009999123100000010000000000000BRA1GNBDR003105
012021033102A1IV34      010APARTMENT INDRN          R$  000000000364000000000036400000000003464000000000350200000000034840000000003201000000000990000028000000000000002211000000000007743662000000000000009999123100000010000000000000BRA1IVBDR002106
012021033102A1KA34      010AKAMAI TECHNDRN          R$  000000000487000000000048900000000004790000000000488500000000047900000000004400000000000495000005000000000000000181000000000000884350000000000000009999123100000010000000000000BRA1KABDR002101
012021033102A1LB34      010ALBEMARLE CODRN          R$  000000008519000000000851900000000083285000000008345800000000832850000000000000000000009029900002000000000000000011000000000000918040000000000000009999123100000010000000000000BRA1LBBDR008105
012021033102A1LG34      010ALIGN TECHNODRN          R$  000000007685000000000768500000000076850000000007685000000000768500000000000000000000000000000005000000000000000072000000000005533200000000000000009999123100000010000000000000BRA1LGBDR007100
012021033102A1LL34      010ALLIANCE DATDRN          R$  000000001590000000000159000000000015900000000001590000000000159000000000015840000000001670000001000000000000000046000000000000731400000000000000009999123100000010000000000000BRA1LLBDR007105
012021033102A1LN34      010ALNYLAM PHARDRN          R$  000000000399700000000039970000000003919000000000394500000000039340000000003410000000000000000005000000000000000010000000000000039458000000000000009999123100000010000000000000BRA1LNBDR003100
012021033102A1LX34      010ALEXION PHARDRN          R$  000000004242100000000441500000000042421000000004328500000000441500000000000000000000000000000002000000000000000010000000000000432855000000000000009999123100000010000000000000BRA1LXBDR002100
012021033102A1MD34      010ADVANCED MICDRN          R$  000000004428100000000447500000000044000000000004442000000000443080000000043808000000004510000012000000000000000473000000000021011121000000000000009999123100000010000000000000BRA1MDBDR002100
012021033102A1MP34      010AMERIPRISE FDRN          R$  000000003310000000000331000000000033100000000003310000000000331000000000024000000000000000000001000000000000000003000000000000099300000000000000009999123100000010000000000000BRA1MPBDR006105
012021033102A1MT34      010APPLIED MATEDRN          R$  000000007602300000000763000000000075811000000007602800000000758110000000066000000000000000000003000000000000000512000000000038926611000000000000009999123100000010000000000000BRA1MTBDR008105
012021033102A1MX34      010AMERICAMOVILDRN          R$  000000000390000000000039000000000003870000000000388100000000038700000000000000000000000404800004000000000000000006000000000000023286000000000000009999123100000010000000000000BRA1MXBDR000101
012021033102A1ON34      010AON PLC     DRN          R$  000000003250000000000325000000000032280000000003239000000000322800000000000000000000000000000002000000000000000002000000000000064780000000000000009999123100000010000000000000BRA1ONBDR007105
012021033102A1PA34      010APA CORP    DRN          R$  000000001025000000000102500000000010002000000001019200000000100780000000009395000000001080000008000000000000001644000000000016756226000000000000009999123100000010000000000000BRA1PABDR001105
012021033102A1PD34      010AIR PRODUCTSDRN ED       R$  000000003970100000000400000000000039701000000003985000000000400000000000000000000000000000000003000000000000000012000000000000478206000000000000009999123100000010000000000000BRA1PDBDR005105
012021033102A1RE34      010ALEXANDRIA RDRN ED       R$  000000002354100000000236600000000023500000000002355600000000236600000000000000000000000000000003000000000000000013000000000000306230000000000000009999123100000010000000000000BRA1REBDR009105
012021033102A1RG34      010ARGENX SE   DRN          R$  000000000630100000000063010000000006215000000000628600000000062150000000000000000000000830000002000000000000000006000000000000037720000000000000009999123100000010000000000000BRA1RGBDR004100
012021033102A1TH34      010AUTOHOME INCDRN          R$  000000000545000000000054500000000005410000000000544000000000054100000000005000000000000000000002000000000000000004000000000000021760000000000000009999123100000010000000000000BRA1THBDR008101
012021033102A1TT34      010ALLSTATE CORDRN          R$  000000003306000000000330600000000032670000000003280000000000326700000000000000000000000000000002000000000000000006000000000000196800000000000000009999123100000010000000000000BRA1TTBDR003105
012021033102A1UA34      010ANGLOGOLD ASDRN          R$  000000000310000000000031440000000003100000000000311000000000031000000000002503000000000361900016000000000000000109000000000000339094000000000000009999123100000010000000000000BRA1UABDR001101
012021033102A1UT34      010AUTODESK INCDRN          R$  000000003882000000000392400000000038820000000003900100000000390300000000039010000000000000000011000000000000001799000000000070162830000000000000009999123100000010000000000000BRA1UTBDR001100
012021033102A1VB34      010AVALONBAY CODRN ED       R$  000000002660000000000266000000000026260000000002632400000000262600000000000000000000000000000004000000000000000028000000000000737080000000000000009999123100000010000000000000BRA1VBBDR007105
012021033102A1YX34      010ALTERYX INC DRN          R$  000000000232600000000023820000000002326000000000235700000000023360000000002322000000000265000012000000000000000050000000000000117865000000000000009999123100000010000000000000BRA1YXBDR005100
012021033102A1ZN34      010ASTRAZENECA DRN          R$  000000000480400000000048040000000004670000000000473000000000046760000000004675000000000480000097000000000000006142000000000029055482000000000000009999123100000010000000000000BRA1ZNBDR003101
012021033102AALL34      010AMERICAN AIRDRN          R$  000000001403100000000140310000000013414000000001358200000000134910000000013480000000001356900146000000000000002325000000000031579452000000000000009999123100000010000000000000BRAALLBDR003115
012021033102AALR3       010ALLIAR      ON      NM   R$  000000000090300000000009160000000000895000000000090400000000009000000000000900000000000090301089000000000000417500000000000377723800000000000000009999123100000010000000000000BRAALRACNOR6102
012021033196AALR3F      020ALLIAR      ON      NM   R$  000000000090800000000009150000000000896000000000090400000000009060000000000896000000000090600172000000000000003575000000000003233284000000000000009999123100000010000000000000BRAALRACNOR6102
012021033102AAPL34      010APPLE       DRN          R$  000000000697000000000070680000000006894000000000697600000000069200000000006910000000000692001390000000000000194181000000001354756466000000000000009999123100000010000000000000BRAAPLBDR004137
012021033102ABBV34      010ABBVIE      DRN          R$  000000006175000000000617500000000061298000000006169000000000612980000000058000000000006200000004000000000000000213000000000013140058000000000000009999123100000010000000000000BRABBVBDR001120
012021033102ABCB4       010ABC BRASIL  PN      N2   R$  000000000148500000000014880000000001445000000000145900000000014500000000001449000000000145003386000000000000681600000000000994670400000000000000009999123100000010000000000000BRABCBACNPR4135
012021033196ABCB4F      020ABC BRASIL  PN      N2   R$  000000000148000000000014950000000001446000000000146100000000014580000000001458000000000146901151000000000000015510000000000022667871000000000000009999123100000010000000000000BRABCBACNPR4135
012021033110ABCB10      010ABC BRASIL  PN  REC N2   R$  000000000146200000000014620000000001448000000000145200000000014480000000001431000000000153000004000000000000000400000000000000581000000000000000009999123100000010000000000000BRABCBR17PR5134
012021033196ABCB10F     020ABC BRASIL  PN  REC N2   R$  000000000144600000000014770000000001430000000000144300000000014300000000001430000000000146200024000000000000000093000000000000134270000000000000009999123100000010000000000000BRABCBR17PR5134
012021033112ABCP11      010FII ABC IMOBCI           R$  000000000788400000000078840000000007840000000000785200000000078400000000007841000000000785500130000000000000002790000000000021907502000000000000009999123100000010000000000000BRABCPCTF000301
012021033102ABEV3       010AMBEV S/A   ON           R$  000000000156000000000015670000000001529000000000153700000000015290000000001529000000000153222622000000000014580700000000022424380300000000000000009999123100000010000000000000BRABEVACNOR1124
012021033196ABEV3F      020AMBEV S/A   ON           R$  000000000155900000000015670000000001533000000000154400000000015330000000001533000000000153803192000000000000042730000000000066011622000000000000009999123100000010000000000000BRABEVACNOR1124
012021033102ABTT34      010ABBOTT      DRN          R$  000000001725900000000172590000000017057000000001716600000000171660000000016046000000001696000003000000000000000819000000000014059711000000000000009999123100000010000000000000BRABTTBDR007137
012021033102ABUD34      010AB INBEV    DRN          R$  000000000596900000000060000000000005910000000000596800000000059450000000005775000000000613400008000000000000007390000000000044108922000000000000009999123100000010000000000000BRABUDBDR009103
012021033102ACNB34      010ACCENTURE   DRN          R$  000000015660000000001578000000000156600000000015670000000001578000000000155500000000018894200003000000000000000012000000000001880400000000000000009999123100000010000000000000BRACNBBDR006114
012021033114ACWI11      010TREND ACWI  CI           R$  000000000111400000000011150000000001085000000000109000000000010880000000001087000000000110900157000000000000037890000000000041322195000000000000009999123100000010000000000000BRACWICTF001100
012021033102ADBE34      010ADOBE INC   DRN          R$  000000000541000000000054590000000005390000000000542300000000053960000000005216000000000550000037000000000000028841000000000156409550000000000000009999123100000010000000000000BRADBEBDR003101
012021033102AERI3       010AERIS       ON      NM   R$  000000000088800000000009110000000000882000000000089500000000008840000000000884000000000089008134000000000003585400000000003210299700000000000000009999123100000010000000000000BRAERIACNOR4100
012021033196AERI3F      020AERIS       ON      NM   R$  000000000089100000000009120000000000884000000000089600000000008940000000000892000000000089402954000000000000068442000000000061350765000000000000009999123100000010000000000000BRAERIACNOR4100
012021033102AESB3       010AES BRASIL  ON      NM   R$  000000000176400000000017650000000001740000000000175000000000017400000000001740000000000175003251000000000000662000000000001158561700000000000000009999123100000010000000000000BRAESBACNOR7100
012021033196AESB3F      020AES BRASIL  ON      NM   R$  000000000175500000000017660000000001740000000000175400000000017400000000001740000000000175001405000000000000017397000000000030516076000000000000009999123100000010000000000000BRAESBACNOR7100
012021033112AFCR11      010FII AFINVCR CI           R$  000000001169400000000117000000000011600000000001168100000000116950000000011660000000001169500039000000000000000834000000000009742761000000000000009999123100000010000000000000BRAFCRCTF007111
012021033102AFLT3       010AFLUENTE T  ON           R$  000000000091300000000009130000000000864000000000090000000000008640000000000876000000000090000009000000000000001000000000000000900000000000000000009999123100000010000000000000BRAFLTACNOR1116
012021033196AFLT3F      020AFLUENTE T  ON           R$  000000000090500000000009180000000000869000000000089900000000009000000000000900000000000091200075000000000000000527000000000000474205000000000000009999123100000010000000000000BRAFLTACNOR1116
012021033112AFOF11      010FII ALIANZFFCI           R$  000000001142500000000116150000000011425000000001150300000000115500000000011731000000000000000006000000000000000034000000000000391125000000000000009999123100000010000000000000BRAFOFCTF007102
012021033102AGRO3       010BRASILAGRO  ON      NM   R$  000000000221600000000022880000000002200000000000225000000000022720000000002272000000000227502079000000000000380200000000000855815700000000000000009999123100000010000000000000BRAGROACNOR7110
012021033196AGRO3F      020BRASILAGRO  ON      NM   R$  000000000221800000000022840000000002200000000000224400000000022730000000002261000000000226700562000000000000008382000000000018813974000000000000009999123100000010000000000000BRAGROACNOR7110
012021033112AIEC11      010FII AUTONOMYCI           R$  000000000900000000000090000000000008800000000000888600000000090000000000008900000000000899900080000000000000002516000000000022357941000000000000009999123100000010000000000000BRAIECCTF009106
012021033102AIRB34      010AIRBNB      DRN          R$  000000000526200000000054670000000005262000000000536200000000052930000000005290000000000535000142000000000000015649000000000083911905000000000000009999123100000010000000000000BRAIRBBDR004100
012021033112ALMI11      010FII TORRE ALCI           R$  000000010570200000001118000000000105702000000010858100000001084020000000108500000000010989900016000000000000000067000000000007274928000000000000009999123100000010000000000000BRALMICTF003250
012021033102ALPA3       010ALPARGATAS  ON      N1   R$  000000000315500000000032170000000003155000000000316800000000031680000000003163000000000328100009000000000000001100000000000003485100000000000000009999123100000010000000000000BRALPAACNOR0229
012021033196ALPA3F      020ALPARGATAS  ON      N1   R$  000000000318000000000032670000000003145000000000317900000000031620000000003183000000000319900028000000000000000151000000000000480090000000000000009999123100000010000000000000BRALPAACNOR0229
012021033102ALPA4       010ALPARGATAS  PN      N1   R$  000000000373600000000037670000000003650000000000368200000000036840000000003672000000000368406485000000000001100600000000004053230400000000000000009999123100000010000000000000BRALPAACNPR7229
012021033196ALPA4F      020ALPARGATAS  PN      N1   R$  000000000376700000000037880000000003652000000000368800000000036900000000003669000000000369000231000000000000004050000000000014938875000000000000009999123100000010000000000000BRALPAACNPR7229
012021033102ALPK3       010ESTAPAR     ON      NM   R$  000000000080500000000008050000000000767000000000078000000000007750000000000775000000000079000113000000000000039600000000000030897300000000000000009999123100000010000000000000BRALPKACNOR9100
012021033196ALPK3F      020ESTAPAR     ON      NM   R$  000000000080000000000008030000000000767000000000078300000000007750000000000776000000000080000077000000000000000855000000000000669779000000000000009999123100000010000000000000BRALPKACNOR9100
012021033102ALSO3       010ALIANSCSONAEON      NM   R$  000000000279900000000027990000000002703000000000274100000000027520000000002752000000000275405337000000000001066200000000002923426300000000000000009999123100000010000000000000BRALSOACNOR5100
012021033196ALSO3F      020ALIANSCSONAEON      NM   R$  000000000280000000000028000000000002704000000000274900000000027720000000002743000000000277200466000000000000009320000000000025628386000000000000009999123100000010000000000000BRALSOACNOR5100
012021033102ALUP3       010ALUPAR      ON      N2   R$  000000000087500000000008870000000000862000000000087500000000008820000000000870000000000088200176000000000000019900000000000017428000000000000000009999123100000010000000000000BRALUPACNOR8111
012021033196ALUP3F      020ALUPAR      ON      N2   R$  000000000087700000000008820000000000865000000000087400000000008820000000000882000000000088300076000000000000001422000000000001243493000000000000009999123100000010000000000000BRALUPACNOR8111
012021033102ALUP4       010ALUPAR      PN      N2   R$  000000000085000000000008580000000000837000000000084600000000008460000000000846000000000085500202000000000000036700000000000031060200000000000000009999123100000010000000000000BRALUPACNPR5111
012021033196ALUP4F      020ALUPAR      PN      N2   R$  000000000085800000000008590000000000836000000000084900000000008580000000000850000000000085800380000000000000003162000000000002685266000000000000009999123100000010000000000000BRALUPACNPR5111
012021033102ALUP11      010ALUPAR      UNT     N2   R$  000000000255700000000025970000000002535000000000256500000000025650000000002565000000000257007252000000000001327400000000003404982700000000000000009999123100000010000000000000BRALUPCDAM15111
012021033196ALUP11F     020ALUPAR      UNT     N2   R$  000000000257100000000025970000000002537000000000256300000000025730000000002555000000000257300862000000000000012190000000000031246733000000000000009999123100000010000000000000BRALUPCDAM15111
012021033112ALZR11      010FII ALIANZA CI           R$  000000001269200000000128740000000012671000000001278800000000128590000000012841000000001285900822000000000000007033000000000089943388000000000000009999123100000010000000000000BRALZRCTF006140
012021033102AMAR3       010LOJAS MARISAON      NM   R$  000000000054200000000005540000000000536000000000054200000000005400000000000540000000000054103910000000000002254100000000001222064100000000000000009999123100000010000000000000BRAMARACNOR4112
012021033196AMAR3F      020LOJAS MARISAON      NM   R$  000000000054500000000005540000000000537000000000054200000000005430000000000543000000000054400471000000000000008336000000000004526269000000000000009999123100000010000000000000BRAMARACNOR4112
012021033102AMBP3       010AMBIPAR     ON      NM   R$  000000000245600000000025250000000002436000000000248000000000025000000000002500000000000250401123000000000000255800000000000634634700000000000000009999123100000010000000000000BRAMBPACNOR6100
012021033196AMBP3F      020AMBIPAR     ON      NM   R$  000000000245000000000025210000000002437000000000247100000000025070000000002463000000000250700290000000000000003610000000000008922854000000000000009999123100000010000000000000BRAMBPACNOR6100
012021033102AMGN34      010AMGEN       DRN          R$  000000000516700000000051670000000005006000000000501500000000050130000000004500000000000000000020000000000000012012000000000060244868000000000000009999123100000010000000000000BRAMGNBDR004138
012021033102AMZO34      010AMAZON      DRN          R$  000000001127000000000112990000000011102000000001120600000000111500000000011130000000001115001226000000000000051768000000000580128664000000000000009999123100000010000000000000BRAMZOBDR002102
012021033102ANIM3       010ANIMA       ON      NM   R$  000000000094800000000010110000000000928000000000099000000000010000000000000995000000000100020042000000000006749700000000006686212700000000000000009999123100000010000000000000BRANIMACNOR6107
012021033196ANIM3F      020ANIMA       ON      NM   R$  000000000093600000000011190000000000925000000000100100000000010320000000001029000000000103209794000000000000087204000000000087300451000000000000009999123100000010000000000000BRANIMACNOR6107
012021033102APER3       010ALPER S.A.  ON      NM   R$  000000000489500000000051800000000004895000000000505900000000051790000000005040000000000517900600000000000000117900000000000596496600000000000000009999123100000010000000000000BRAPERACNOR9103
012021033196APER3F      020ALPER S.A.  ON      NM   R$  000000000492400000000051600000000004906000000000505200000000051600000000005022000000000516200070000000000000001299000000000006563236000000000000009999123100000010000000000000BRAPERACNOR9103
012021033110APER9       010ALPER S.A.  ON  REC NM   R$  000000000494400000000049440000000004944000000000494400000000049440000000003669000000000499000001000000000000000100000000000000494400000000000000009999123100000010000000000000BRAPERR02OR2102
012021033196APER9F      020ALPER S.A.  ON  REC NM   R$  000000000500000000000050000000000004670000000000489800000000049400000000004700000000000495000006000000000000000083000000000000406589000000000000009999123100000010000000000000BRAPERR02OR2102
012021033102APTV34      010APTIV PLC   DRN          R$  000000003950000000000396000000000039314000000003948800000000393600000000000000000000000000000004000000000000000180000000000007107940000000000000009999123100000010000000000000BRAPTVBDR003102
012021033112ARCT11      010FII ARCTIUM CI           R$  000000001099900000000110150000000010925000000001096600000000109800000000010930000000001098000295000000000000007390000000000081043216000000000000009999123100000010000000000000BRARCTCTF008111
012021033102ARMT34      010ARCELOR     DRN          R$  000000000836800000000085000000000008175000000000833700000000082750000000008235000000000840000031000000000000001916000000000015975017000000000000009999123100000010000000000000BRARMTBDR008117
012021033112ARRI11      010FII ATRIO   CI           R$  000000000993000000000099800000000009851000000000994000000000099800000000009980000000000998900090000000000000001849000000000018380071000000000000009999123100000010000000000000BRARRICTF009115
012021033102ARZZ3       010AREZZO CO   ON      NM   R$  000000000708400000000071260000000006933000000000701900000000070350000000007025000000000703503958000000000000618100000000004338978700000000000000009999123100000010000000000000BRARZZACNOR3138
012021033196ARZZ3F      020AREZZO CO   ON      NM   R$  000000000708000000000071280000000006939000000000701400000000070450000000007006000000000704500512000000000000007423000000000052067039000000000000009999123100000010000000000000BRARZZACNOR3138
012021033102ASAI3       010ASSAI       ON      NM   R$  000000000735500000000073940000000007201000000000733700000000073840000000007380000000000738403853000000000000732600000000005375755000000000000000009999123100000010000000000000BRASAIACNOR0100
012021033196ASAI3F      020ASSAI       ON      NM   R$  000000000735000000000073900000000007203000000000732600000000073800000000007369000000000738000299000000000000003157000000000023128533000000000000009999123100000010000000000000BRASAIACNOR0100
012021033102ASML34      010ASML HOLD   DRN          R$  000000035039900000003506190000000344300000000035025900000003506190000000300000000000000000000003000000000000000106000000000037127480000000000000009999123100000010000000000000BRASMLBDR003103
012021033107ATMP3       010ATMASA      ON      NM   R$  000000000049400000000005150000000000490000000000050300000000004950000000000495000000000050000187000000000000071600000000000036076500000000000000009999123100000010000000000000BRATMPACNOR8100
012021033196ATMP3F      020ATMASA      ON      NM   R$  000000000048600000000005100000000000486000000000050400000000005000000000000495000000000050000095000000000000001587000000000000800255000000000000009999123100000010000000000000BRATMPACNOR8100
012021033102ATOM3       010ATOMPAR     ON           R$  000000000040100000000010000000000000401000000000074500000000008840000000000884000000000088510241000000000004281400000000003193455600000000000000009999123100000010000000000000BRATOMACNOR1103
012021033196ATOM3F      020ATOMPAR     ON           R$  000000000038600000000011350000000000386000000000080800000000008620000000000850000000000086208003000000000000164353000000000132928488000000000000009999123100000010000000000000BRATOMACNOR1103
012021033112ATSA11      010FII HATRIUM CI           R$  000000001120000000000112000000000010800000000001101300000000111500000000010900000000001115000019000000000000000077000000000000848074000000000000009999123100000010000000000000BRATSACTF000136
012021033102ATTB34      010ATT INC     DRN          R$  000000000599900000000059990000000005678000000000572200000000057020000000005702000000000584900125000000000000010245000000000058626015000000000000009999123100000010000000000000BRATTBBDR007135
012021033102ATVI34      010ACTIVISION  DRN          R$  000000005327500000000538500000000052389000000005268500000000524980000000052000000000005249800054000000000000000787000000000041463594000000000000009999123100000010000000000000BRATVIBDR008101
012021033102AURA33      010AURA 360    DR3 ED       R$  000000000589800000000059990000000005810000000000591300000000058800000000005880000000000589204387000000000000201169000000001189602113000000000000009999123100000010000000000000BRAURABDR001104
012021033102AVGO34      010BROADCOM INCDRN          R$  000000000750300000000076010000000007493000000000751900000000074930000000007450000000000800000012000000000000007876000000000059220971000000000000009999123100000010000000000000BRAVGOBDR003109
012021033102AVLL3       010ALPHAVILLE  ON      NM   R$  000000000204500000000022690000000002039000000000220900000000022000000000002200000000000227100189000000000000037100000000000081968500000000000000009999123100000010000000000000BRAVLLACNOR5101
012021033196AVLL3F      020ALPHAVILLE  ON      NM   R$  000000000237900000000023790000000002090000000000219900000000022270000000002227000000000237000039000000000000000273000000000000600468000000000000009999123100000010000000000000BRAVLLACNOR5101
012021033102AXPB34      010AMERICAN EXPDRN ED       R$  000000000816200000000082020000000008000000000000808400000000080000000000007950000000000890000027000000000000003277000000000026492861000000000000009999123100000010000000000000BRAXPBBDR007137
012021033102AZEV3       010AZEVEDO     ON           R$  000000000061400000000006150000000000600000000000060500000000006000000000000600000000000060700060000000000000028100000000000017013600000000000000009999123100000010000000000000BRAZEVACNOR0118
012021033196AZEV3F      020AZEVEDO     ON           R$  000000000061500000000006190000000000594000000000061100000000006120000000000594000000000061200047000000000000000595000000000000363657000000000000009999123100000010000000000000BRAZEVACNOR0118
012021033102AZEV4       010AZEVEDO     PN           R$  000000000039800000000003990000000000383000000000039200000000003900000000000390000000000039200125000000000000084000000000000032929800000000000000009999123100000010000000000000BRAZEVACNPR7118
012021033196AZEV4F      020AZEVEDO     PN           R$  000000000039300000000003980000000000379000000000038900000000003870000000000384000000000039400058000000000000000760000000000000296272000000000000009999123100000010000000000000BRAZEVACNPR7118
012021033102AZUL4       010AZUL        PN      N2   R$  000000000390300000000039700000000003739000000000381100000000037850000000003785000000000378625522000000000011320600000000043148582100000000000000009999123100000010000000000000BRAZULACNPR4100
012021033196AZUL4F      020AZUL        PN      N2   R$  000000000390100000000039700000000003740000000000381900000000038020000000003790000000000380203052000000000000052858000000000201877714000000000000009999123100000010000000000000BRAZULACNPR4100
012021033102B1BL34      010BHP GROUP PLDRN          R$  000000000656500000000065650000000006565000000000656500000000065650000000006534000000000700000001000000000000000002000000000000013130000000000000009999123100000010000000000000BRB1BLBDR007101
012021033102B1CS34      010BARCLAYS PLCDRN          R$  000000000599500000000059950000000005791000000000591200000000057910000000004800000000000000000006000000000000001051000000000006213995000000000000009999123100000010000000000000BRB1CSBDR000101
012021033102B1DX34      010BECTON DICKIDRN          R$  000000002782000000000278200000000027820000000002782000000000278200000000000000000000000000000001000000000000000002000000000000055640000000000000009999123100000010000000000000BRB1DXBDR008105
012021033102B1IL34      010BILIBILI INCDRN          R$  000000001212300000000122600000000012000000000001213300000000121000000000011820000000001240000007000000000000000677000000000008214560000000000000009999123100000010000000000000BRB1ILBDR002100
012021033102B1MR34      010BIOMARIN PHADRN          R$  000000002158000000000215850000000021580000000002158100000000215850000000000000000000002550000003000000000000000957000000000020653245000000000000009999123100000010000000000000BRB1MRBDR001100
012021033102B1NT34      010BIONTECH SE DRN          R$  000000000766000000000079000000000007000000000000747700000000077100000000007655000000000772000135000000000000029878000000000223402892000000000000009999123100000010000000000000BRB1NTBDR005100
012021033102B1PP34      010BP PLC      DRN          R$  000000000359900000000035990000000003435000000000347100000000034480000000003450000000000354400049000000000000021059000000000073113360000000000000009999123100000010000000000000BRB1PPBDR008102
012021033102B1RF34      010BROADRIDGE FDRN          R$  000000002170000000000217000000000021700000000002170000000000217000000000000000000000000000000001000000000000000003000000000000065100000000000000009999123100000010000000000000BRB1RFBDR005105
012021033102B1SA34      010BANCO SANTANDRN          R$  000000000714000000000071700000000007020000000000713100000000070200000000006300000000000000000006000000000000000080000000000000570515000000000000009999123100000010000000000000BRB1SABDR004101
012021033102B1SX34      010BOSTON SCIENDRN          R$  000000002256000000000225600000000021860000000002196500000000219700000000017500000000000000000005000000000000000293000000000006435900000000000000009999123100000010000000000000BRB1SXBDR006100
012021033102B1TI34      010BRITISH AMERDRN ED       R$  000000000445000000000044680000000004370000000000441400000000043800000000004382000000000000000033000000000000000771000000000003403771000000000000009999123100000010000000000000BRB1TIBDR005102
012021033102B3SA3       010B3          ON  EDJ NM   R$  000000000534200000000054960000000005327000000000544200000000054620000000005461000000000546245807000000000014148900000000077007993500000000000000009999123100000010000000000000BRB3SAACNOR6115
012021033196B3SA3F      020B3          ON  EDJ NM   R$  000000000535900000000054950000000005356000000000543600000000054800000000005465000000000548003929000000000000062530000000000339924011000000000000009999123100000010000000000000BRB3SAACNOR6115
012021033102BAAX39      010MSCI ASIA JPDRN          R$  000000000549900000000054990000000005235000000000524500000000052440000000005227000000000540600028000000000000030748000000000161276316000000000000009999123100000010000000000000BRBAAXBDR009101
012021033102BABA34      010ALIBABAGR   DRN          R$  000000000470900000000047290000000004570000000000463400000000045700000000004570000000000459400740000000000000079652000000000369176920000000000000009999123100000010000000000000BRBABABDR005101
012021033102BACW39      010MSCI ACWI   DRN          R$  000000000549000000000054950000000005371000000000538500000000053710000000005365000000000550000031000000000000026983000000000145325534000000000000009999123100000010000000000000BRBACWBDR007101
012021033102BAER39      010US AEROSPACEDRN ED       R$  000000000295700000000029570000000002957000000000295700000000029570000000002802000000000341000001000000000000000040000000000000118280000000000000009999123100000010000000000000BRBAERBDR003103
012021033102BAHI3       010BAHEMA      ON      MA   R$  000000000700000000000070000000000007000000000000700000000000070000000000007000000000000735000002000000000000000200000000000001400000000000000000009999123100000010000000000000BRBAHIACNOR1072
012021033196BAHI3F      020BAHEMA      ON      MA   R$  000000000715000000000071500000000006901000000000698100000000069010000000006850000000000706400006000000000000000053000000000000370028000000000000009999123100000010000000000000BRBAHIACNOR1072
012021033102BALM3       010BAUMER      ON           R$  000000000169000000000016990000000001690000000000169600000000016990000000001573000000000169500002000000000000000300000000000000508800000000000000009999123100000010000000000000BRBALMACNOR5050
012021033196BALM3F      020BAUMER      ON           R$  000000000163100000000016880000000001515000000000154700000000015380000000001625000000000168600013000000000000000124000000000000191904000000000000009999123100000010000000000000BRBALMACNOR5050
012021033196BALM4F      020BAUMER      PN           R$  000000000137100000000014250000000001371000000000138900000000013760000000001376000000000140000009000000000000000018000000000000025004000000000000009999123100000010000000000000BRBALMACNPR2051
012021033112BARI11      010FII BARIGUI CI           R$  000000001148800000000114880000000011324000000001137000000000113500000000011350000000001135902053000000000000040211000000000457233360000000000000009999123100000010000000000000BRBARICTF003123
012021033102BAUH4       010EXCELSIOR   PN           R$  000000000940200000000094950000000009300000000000943100000000094950000000008300000000000949900007000000000000000900000000000008488400000000000000009999123100000010000000000000BRBAUHACNPR3115
012021033102BAZA3       010AMAZONIA    ON           R$  000000000401900000000040980000000004019000000000404600000000040550000000004005000000000409100012000000000000001600000000000006474600000000000000009999123100000010000000000000BRBAZAACNOR0174
012021033196BAZA3F      020AMAZONIA    ON           R$  000000000407500000000041500000000004019000000000407600000000040500000000004000000000000407800021000000000000000233000000000000949863000000000000009999123100000010000000000000BRBAZAACNOR0174
012021033102BBAS3       010BRASIL      ON      NM   R$  000000000306500000000030740000000003023000000000304700000000030450000000003044000000000304625058000000000012643900000000038534700700000000000000009999123100000010000000000000BRBBASACNOR3297
012021033196BBAS3F      020BRASIL      ON      NM   R$  000000000307200000000030790000000003023000000000304900000000030570000000003057000000000306005088000000000000076512000000000233309383000000000000009999123100000010000000000000BRBBASACNOR3297
012021033102BBDC3       010BRADESCO    ON      N1   R$  000000000237000000000023870000000002326000000000235600000000023510000000002351000000000235210067000000000004666100000000010995988100000000000000009999123100000010000000000000BRBBDCACNOR1723
012021033196BBDC3F      020BRADESCO    ON      N1   R$  000000000239300000000023940000000002328000000000235300000000023500000000002350000000000235101372000000000000018714000000000044038979000000000000009999123100000010000000000000BRBBDCACNOR1723
012021033102BBDC4       010BRADESCO    PN      N1   R$  000000000274000000000027400000000002645000000000267500000000026770000000002673000000000267763713000000000040331700000000107912065200000000000000009999123100000010000000000000BRBBDCACNPR8723
012021033196BBDC4F      020BRADESCO    PN      N1   R$  000000000272600000000027260000000002646000000000267500000000026810000000002670000000000268115218000000000000184583000000000493803632000000000000009999123100000010000000000000BRBBDCACNPR8723
012021033112BBFI11B     010FII BB PROGRCI      MB   R$  000000023999900000002399990000000233701000000023808000000002392970000000237901000000023929800051000000000000000082000000000019522567000000000000009999123100000010000000000000BRBBFICTF006288
012021033112BBFO11      010FII BB FOF  CI           R$  000000000974000000000097400000000009657000000000973300000000097380000000009738000000000973900009000000000000000037000000000000360125000000000000009999123100000010000000000000BRBBFOCTF004102
012021033114BBOV11      010BB ETF IBOV CI           R$  000000000598500000000060120000000005946000000000597600000000059700000000005970000000000600900033000000000000038630000000000230884279000000000000009999123100000010000000000000BRBBOVCTF001100
012021033112BBPO11      010FII BB PRGIICI           R$  000000001153200000000116380000000011532000000001159600000000116100000000011609000000001161000930000000000000021109000000000244795995000000000000009999123100000010000000000000BRBBPOCTF003200
012021033112BBRC11      010FII BB CORP CI           R$  000000001175500000000120000000000011750000000001189400000000118930000000011892000000001189300070000000000000000625000000000007434329000000000000009999123100000010000000000000BRBBRCCTF004214
012021033102BBRK3       010BR BROKERS  ON      NM   R$  000000000018000000000001820000000000173000000000017700000000001730000000000173000000000017401614000000000001536700000000000272883900000000000000009999123100000010000000000000BRBBRKACNOR4114
012021033196BBRK3F      020BR BROKERS  ON      NM   R$  000000000018100000000001810000000000175000000000017700000000001780000000000175000000000017800238000000000000003556000000000000631255000000000000009999123100000010000000000000BRBBRKACNOR4114
012021033114BBSD11      010BB ETF SP DVCI           R$  000000000890300000000089250000000008857000000000892200000000089240000000008895000000000899900019000000000000003474000000000030995285000000000000009999123100000010000000000000BRBBSDCTF000100
012021033102BBSE3       010BBSEGURIDADEON      NM   R$  000000000249000000000024900000000002413000000000243100000000024250000000002424000000000242527641000000000010117600000000024597078000000000000000009999123100000010000000000000BRBBSEACNOR5118
012021033196BBSE3F      020BBSEGURIDADEON      NM   R$  000000000249000000000025020000000002414000000000243800000000024310000000002430000000000243106663000000000000082609000000000201422363000000000000009999123100000010000000000000BRBBSEACNOR5118
012021033112BCFF11      010FII BC FFII CI           R$  000000000856000000000086500000000008560000000000860700000000086450000000008645000000000864604046000000000000063526000000000546794030000000000000009999123100000010000000000000BRBCFFCTF000238
012021033102BCHI39      010MSCI CHINA  DRN          R$  000000000586700000000058670000000005769000000000579600000000057690000000005765000000000577700053000000000000003926000000000022758430000000000000009999123100000010000000000000BRBCHIBDR001101
012021033112BCIA11      010FII BCIA    CI           R$  000000001049200000000106000000000010492000000001052700000000105100000000010510000000001052400276000000000000005333000000000056140611000000000000009999123100000010000000000000BRBCIACTF005171
012021033112BCRI11      010FII BEES CRICI           R$  000000001149000000000114950000000011381000000001146300000000114250000000011425000000001144400461000000000000007137000000000081813557000000000000009999123100000010000000000000BRBCRICTF009175
012021033102BCSA34      010SANTANDER   DRN          R$  000000000199200000000019920000000001919000000000194700000000019440000000001944000000000199500071000000000000011540000000000022470733000000000000009999123100000010000000000000BRBCSABDR005102
012021033114BDIV11      010FIP BTGDV IECI           R$  000000001030000000000103000000000009200000000001009900000000099810000000009981000000001019403356000000000000020298000000000204993212000000000000009999123100000010000000000000BRBDIVCTF009101
012021033108BDLL3       010BARDELLA    ON           R$  000000000080700000000008600000000000807000000000083100000000008170000000000817000000000082500043000000000000008300000000000006905300000000000000009999123100000010000000000000BRBDLLACNOR1149
012021033196BDLL3F      020BARDELLA    ON           R$  000000000081900000000008700000000000809000000000082600000000008120000000000812000000000084100053000000000000000556000000000000459724000000000000009999123100000010000000000000BRBDLLACNOR1149
012021033108BDLL4       010BARDELLA    PN           R$  000000000089500000000009100000000000880000000000088700000000009100000000000881000000000091200021000000000000004300000000000003815000000000000000009999123100000010000000000000BRBDLLACNPR8151
012021033196BDLL4F      020BARDELLA    PN           R$  000000000090000000000009000000000000895000000000089500000000008950000000000895000000000089700008000000000000000087000000000000077895000000000000009999123100000010000000000000BRBDLLACNPR8151
012021033102BDVY39      010SELECT DIVIDDRN ED       R$  000000000668000000000066800000000006439000000000649600000000064440000000006442000000000000000019000000000000001220000000000007925625000000000000009999123100000010000000000000BRBDVYBDR007102
012021033102BEEF3       010MINERVA     ON      NM   R$  000000000103500000000010400000000001012000000000102100000000010200000000001020000000000102213487000000000007803300000000007972746600000000000000009999123100000010000000000000BRBEEFACNOR6110
012021033196BEEF3F      020MINERVA     ON      NM   R$  000000000104000000000010500000000001010000000000102000000000010110000000001011000000000102611460000000000000100191000000000102208817000000000000009999123100000010000000000000BRBEEFACNOR6110
012021033122BEEF11      010MINERVA     BNS ORD NM   R$  000000000044500000000004470000000000425000000000043100000000004310000000000431000000000044000081000000000000037300000000000016102800000000000000009999123100000010000000000000BRBEEFN02OR8100
012021033196BEEF11F     020MINERVA     BNS ORD NM   R$  000000000044800000000004530000000000425000000000044000000000004430000000000437000000000044300059000000000000000631000000000000277767000000000000009999123100000010000000000000BRBEEFN02OR8100
012021033102BEEM39      010MSCI EMGMARKDRN          R$  000000000510000000000051000000000005024000000000503000000000050320000000005000000000000520000040000000000000006040000000000030385376000000000000009999123100000010000000000000BRBEEMBDR006101
012021033102BEES3       010BANESTES    ON           R$  000000000049500000000004950000000000490000000000049100000000004950000000000493000000000049500133000000000000035300000000000017359400000000000000009999123100000010000000000000BRBEESACNOR9345
012021033196BEES3F      020BANESTES    ON           R$  000000000049100000000004970000000000491000000000049300000000004950000000000494000000000049500365000000000000003831000000000001888994000000000000009999123100000010000000000000BRBEESACNOR9345
012021033102BEES4       010BANESTES    PN           R$  000000000059700000000006100000000000578000000000059800000000005990000000000580000000000059900044000000000000009300000000000005564100000000000000009999123100000010000000000000BRBEESACNPR6270
012021033196BEES4F      020BANESTES    PN           R$  000000000057800000000005980000000000578000000000058900000000005940000000000586000000000059400083000000000000000763000000000000449909000000000000009999123100000010000000000000BRBEESACNPR6270
012021033102BEFA39      010MSCI EAFE   DRN          R$  000000000548800000000054880000000005355000000000538700000000053550000000005301000000000600000032000000000000003880000000000020902072000000000000009999123100000010000000000000BRBEFABDR008101
012021033102BEGD39      010TRTMSCI EAFEDRN          R$  000000000540100000000054150000000005356000000000539900000000053560000000005240000000000556600005000000000000000100000000000000539954000000000000009999123100000010000000000000BRBEGDBDR000101
012021033102BEGE39      010INC ESG AWARDRN          R$  000000000617500000000061750000000006118000000000614000000000061180000000005500000000000613600006000000000000001194000000000007331623000000000000009999123100000010000000000000BRBEGEBDR008101
012021033102BEGU39      010TRUSTMSCI USDRN ED       R$  000000000536000000000053600000000005135000000000519400000000051400000000005109000000000000000012000000000000000424000000000002202283000000000000009999123100000010000000000000BRBEGUBDR004102
012021033102BERK34      010BERKSHIRE   DRN          R$  000000000748900000000074890000000007190000000000729500000000072780000000007220000000000727800995000000000000065063000000000474673974000000000000009999123100000010000000000000BRBERKBDR002101
012021033102BEWG39      010MSCI GERMANYDRN          R$  000000000639200000000063920000000006290000000000633300000000062950000000006250000000000650200022000000000000000812000000000005142753000000000000009999123100000010000000000000BRBEWGBDR000101
012021033102BEWH39      010MSCIHONGKONGDRN          R$  000000000501000000000050100000000005002000000000500300000000050040000000004852000000000515500003000000000000000331000000000001656288000000000000009999123100000010000000000000BRBEWHBDR008101
012021033102BEWJ39      010MSCI JAPAN  DRN          R$  000000000492300000000049230000000004845000000000485000000000048450000000004826000000000506600023000000000000001636000000000007935130000000000000009999123100000010000000000000BRBEWJBDR004101
012021033102BEWT39      010MSCI TAIWAN DRN          R$  000000000565000000000056600000000005650000000000565000000000056600000000005522000000000000000003000000000000000012000000000000067810000000000000009999123100000010000000000000BRBEWTBDR003101
012021033102BEWU39      010MSCI UK     DRN          R$  000000000599900000000059990000000005890000000000590700000000058960000000005870000000000608200013000000000000000961000000000005677039000000000000009999123100000010000000000000BRBEWUBDR001101
012021033102BEWW39      010MSCI MEXICO DRN          R$  000000000623200000000062320000000006190000000000619300000000061900000000006049000000000642200002000000000000000221000000000001368872000000000000009999123100000010000000000000BRBEWWBDR007102
012021033102BEWY39      010MSCISOUTHKORDRN          R$  000000000639100000000063910000000006357000000000636800000000063610000000004750000000000000000004000000000000000044000000000000280213000000000000009999123100000010000000000000BRBEWYBDR003101
012021033102BEZU39      010MSCIEUROZONEDRN          R$  000000000663000000000066300000000006630000000000663000000000066300000000006533000000000662500003000000000000000133000000000000881790000000000000009999123100000010000000000000BRBEZUBDR004101
012021033102BGIP4       010BANESE      PN           R$  000000000220100000000022280000000002200000000000220800000000022040000000002203000000000222900004000000000000000400000000000000883300000000000000009999123100000010000000000000BRBGIPACNPR8200
012021033196BGIP4F      020BANESE      PN           R$  000000000224000000000022400000000002240000000000224000000000022400000000002240000000000224500004000000000000000031000000000000069440000000000000009999123100000010000000000000BRBGIPACNPR8200
012021033102BHPG34      010BHP GROUP   DRN          R$  000000003950000000000395000000000039360000000003949400000000393600000000032252000000004077000002000000000000000027000000000001066360000000000000009999123100000010000000000000BRBHPGBDR007103
012021033102BIAU39      010GOLD TRUST  DRN          R$  000000000463000000000046420000000004580000000000461100000000045950000000004578000000000485900044000000000000034192000000000157675924000000000000009999123100000010000000000000BRBIAUBDR008100
012021033102BIBB39      010NASDAQ BIOTCDRN ED       R$  000000000572000000000057280000000005640000000000565900000000056740000000005676000000000587600213000000000000007405000000000041905878000000000000009999123100000010000000000000BRBIBBBDR006102
012021033112BICR11      010FII INTER   CI           R$  000000000966700000000098160000000009667000000000970800000000097800000000009700000000000978000012000000000000000055000000000000533992000000000000009999123100000010000000000000BRBICRCTF009115
012021033102BIDI3       010BANCO INTER ON  EJ  N2   R$  000000000508000000000052430000000005037000000000515300000000052430000000005243000000000524401505000000000000234200000000001206999700000000000000009999123100000010000000000000BRBIDIACNOR3108
012021033196BIDI3F      020BANCO INTER ON  EJ  N2   R$  000000000502000000000052250000000005020000000000514300000000051900000000005190000000000521900405000000000000005698000000000029309129000000000000009999123100000010000000000000BRBIDIACNOR3108
012021033102BIDI4       010BANCO INTER PN  EJ  N2   R$  000000000513000000000052300000000005061000000000516000000000052100000000005209000000000521007511000000000001924000000000009928179800000000000000009999123100000010000000000000BRBIDIACNPR0112
012021033196BIDI4F      020BANCO INTER PN  EJ  N2   R$  000000000510000000000052290000000005063000000000515600000000051600000000005160000000000519002340000000000000044341000000000228630499000000000000009999123100000010000000000000BRBIDIACNPR0112
012021033102BIDI11      010BANCO INTER UNT EJ  N2   R$  000000001534800000000156990000000015132000000001551100000000156710000000015660000000001567507201000000000001021400000000015843377500000000000000009999123100000010000000000000BRBIDICDAXX3107
012021033196BIDI11F     020BANCO INTER UNT EJ  N2   R$  000000001530100000000156840000000015150000000001548400000000156500000000015648000000001565000673000000000000009545000000000147796371000000000000009999123100000010000000000000BRBIDICDAXX3107
012021033102BIDU34      010BAIDU INC   DRN          R$  000000012819900000001281990000000121101000000012409000000001225480000000121630000000012254800084000000000000002705000000000335664784000000000000009999123100000010000000000000BRBIDUBDR002100
012021033102BIEF39      010COREMSCIEAFEDRN          R$  000000000511800000000051180000000005100000000000511600000000051000000000004928000000000000000003000000000000000328000000000001678200000000000000009999123100000010000000000000BRBIEFBDR001101
012021033102BIEM39      010COREMSCI EMKDRN          R$  000000000614400000000061440000000006055000000000608400000000060800000000006010000000000627500016000000000000002404000000000014627611000000000000009999123100000010000000000000BRBIEMBDR007101
012021033102BIEU39      010COREMSCI EURDRN          R$  000000000520000000000052000000000005069000000000508200000000050690000000005055000000000526700012000000000000008600000000000043707247000000000000009999123100000010000000000000BRBIEUBDR000101
012021033102BIGF39      010GLOBAL INFRADRN          R$  000000000649000000000064900000000006330000000000640200000000063300000000006400000000000655200013000000000000003025000000000019368808000000000000009999123100000010000000000000BRBIGFBDR006101
012021033102BIIB34      010BIOGEN      DRN          R$  000000002640100000000264010000000026401000000002640100000000264010000000019500000000002640500001000000000000000400000000000010560400000000000000009999123100000010000000000000BRBIIBBDR001101
012021033102BIJH39      010CORE MIDCAP DRN ED       R$  000000000737500000000073750000000007375000000000737500000000073750000000007246000000000000000001000000000000000281000000000002072375000000000000009999123100000010000000000000BRBIJHBDR006102
012021033102BIJR39      010CORESMALLCAPDRN ED       R$  000000000775000000000077610000000007680000000000772000000000077500000000007350000000000796000004000000000000000236000000000001822033000000000000009999123100000010000000000000BRBIJRBDR005102
012021033102BILB34      010BILBAOVIZ   DRN          R$  000000000298800000000029880000000002988000000000298800000000029880000000002617000000002000000001000000000000000001000000000000002988000000000000009999123100000010000000000000BRBILBBDR005101
012021033102BILF39      010LATIN AMER40DRN          R$  000000000519000000000051900000000005190000000000519000000000051900000000000000000000000000000001000000000000000500000000000002595000000000000000009999123100000010000000000000BRBILFBDR006101
012021033102BIOM3       010BIOMM       ON      MA   R$  000000000166100000000016800000000001611000000000165600000000016110000000001611000000000164000085000000000000027200000000000045065800000000000000009999123100000010000000000000BRBIOMACNOR2108
012021033196BIOM3F      020BIOMM       ON      MA   R$  000000000162300000000016990000000001623000000000167900000000016990000000001624000000000166800020000000000000000175000000000000293970000000000000009999123100000010000000000000BRBIOMACNOR2108
012021033102BITO39      010CORE SP TOTADRN ED       R$  000000000523900000000052390000000005175000000000519700000000051750000000005100000000000000000008000000000000000129000000000000670451000000000000009999123100000010000000000000BRBITOBDR001102
012021033102BIVB39      010CORE SP 500 DRN ED       R$  000000000572300000000057300000000005617000000000565800000000056210000000005611000000000576500039000000000000001927000000000010904777000000000000009999123100000010000000000000BRBIVBBDR004102
012021033102BIWM39      010RUSSELL 2000DRN ED       R$  000000000633400000000063400000000006218000000000627100000000062590000000006105000000000643900368000000000000034720000000000217743304000000000000009999123100000010000000000000BRBIWMBDR009102
012021033102BIXJ39      010GLOBALHEALTHDRN          R$  000000000555500000000055550000000005445000000000549800000000054450000000005400000000000000000010000000000000000493000000000002710618000000000000009999123100000010000000000000BRBIXJBDR003101
012021033102BIXN39      010GLOBAL TECH DRN          R$  000000000588500000000058850000000005780000000000582400000000057800000000005514000000000600000018000000000000000563000000000003279075000000000000009999123100000010000000000000BRBIXNBDR005101
012021033102BIYF39      010US FINANCIALDRN ED       R$  000000000289000000000028900000000002822000000000283100000000028220000000002800000000000294500024000000000000002846000000000008058880000000000000009999123100000010000000000000BRBIYFBDR009103
012021033102BIYW39      010US TECHNOLOGDRN ED       R$  000000000143000000000014330000000001416000000000142100000000014160000000001390000000000145900013000000000000011199000000000015916509000000000000009999123100000010000000000000BRBIYWBDR004103
012021033102BKBR3       010BK BRASIL   ON      NM   R$  000000000097000000000009720000000000942000000000096000000000009670000000000964000000000096709564000000000003554600000000003413796200000000000000009999123100000010000000000000BRBKBRACNOR4103
012021033196BKBR3F      020BK BRASIL   ON      NM   R$  000000000097500000000009750000000000943000000000095800000000009610000000000961000000000097000497000000000000009744000000000009335713000000000000009999123100000010000000000000BRBKBRACNOR4103
012021033102BKNG34      010BOOKING     DRN          R$  000000000769000000000077600000000007500000000000757100000000075000000000007430000000000776500092000000000000019982000000000151303498000000000000009999123100000010000000000000BRBKNGBDR006101
012021033102BLAK34      010BLACKROCK   DRN          R$  000000007200000000000720000000000071331000000007189200000000716000000000071000000000007300000007000000000000000054000000000003882192000000000000009999123100000010000000000000BRBLAKBDR003120
012021033112BLMG11      010FII BLUE LOGCI  ES       R$  000000001065000000000107390000000010500000000001064100000000107000000000010402000000001070000115000000000000003957000000000042106517000000000000009999123100000010000000000000BRBLMGCTF005105
012021033112BLMG12      010FII BLUE LOGDIR          R$  000000000000700000000000070000000000004000000000000400000000000050000000000004000000000000500160000000000000138671000000000000667247000000000000009999123100000010000000000000BRBLMGD01M10104
012021033112BLMR11      010FII BLUE FOFCI           R$  000000000920500000000094620000000009048000000000922100000000090560000000009056000000000919901167000000000000016099000000000148449934000000000000009999123100000010000000000000BRBLMRCTF002101
012021033196BMEB3F      020MERC BRASIL ON      N1   R$  000000000194400000000019440000000001900000000000192500000000019000000000001845000000000194400004000000000000000012000000000000023106000000000000009999123100000010000000000000BRBMEBACNOR8197
012021033102BMEB4       010MERC BRASIL PN      N1   R$  000000000178400000000017850000000001730000000000176900000000017320000000001731000000000175000024000000000000007400000000000013093400000000000000009999123100000010000000000000BRBMEBACNPR5202
012021033196BMEB4F      020MERC BRASIL PN      N1   R$  000000000179700000000017970000000001740000000000177700000000017400000000001745000000000178400011000000000000000057000000000000101338000000000000009999123100000010000000000000BRBMEBACNPR5202
012021033102BMGB4       010BANCO BMG   PN      N1   R$  000000000052900000000005370000000000501000000000051700000000005010000000000501000000000050404204000000000002311900000000001195466200000000000000009999123100000010000000000000BRBMGBACNPR0102
012021033196BMGB4F      020BANCO BMG   PN      N1   R$  000000000053300000000005370000000000506000000000051900000000005060000000000505000000000050600853000000000000015023000000000007810223000000000000009999123100000010000000000000BRBMGBACNPR0102
012021033196BMIN3F      020MERC INVEST ON           R$  000000000220500000000022050000000002087000000000215400000000020870000000002095000000000239700005000000000000000026000000000000056027000000000000009999123100000010000000000000BRBMINACNOR4168
012021033102BMIN4       010MERC INVEST PN           R$  000000000212600000000021260000000002126000000000212600000000021260000000002120000000000219500001000000000000000100000000000000212600000000000000009999123100000010000000000000BRBMINACNPR1172
012021033196BMIN4F      020MERC INVEST PN           R$  000000000215400000000022780000000002145000000000217500000000021450000000002075000000000248000008000000000000000026000000000000056568000000000000009999123100000010000000000000BRBMINACNPR1172
012021033102BMKS3       010BIC MONARK  ON           R$  000000002391000000000242240000000023910000000002416500000000242240000000023610000000002422400003000000000000000013000000000000314150000000000000009999123100000010000000000000BRBMKSACNOR9162
012021033112BMLC11      010FII BMBRC LCCI           R$  000000000939500000000093950000000009247000000000927000000000093530000000009254000000000935400014000000000000000026000000000000241037000000000000009999123100000010000000000000BRBMLCCTF004211
012021033102BMOB3       010BEMOBI TECH ON      NM   R$  000000000189000000000019500000000001847000000000189400000000018510000000001851000000000185702503000000000000735900000000001393993400000000000000009999123100000010000000000000BRBMOBACNOR7100
012021033196BMOB3F      020BEMOBI TECH ON      NM   R$  000000000191500000000019450000000001849000000000190000000000018600000000001860000000000186300467000000000000007980000000000015164948000000000000009999123100000010000000000000BRBMOBACNOR7100
012021033102BMYB34      010BRISTOLMYERSDRN ED       R$  000000003646900000000364690000000036253000000003625400000000362530000000035500000000000000000002000000000000001005000000000036435345000000000000009999123100000010000000000000BRBMYBBDR000130
012021033102BNBR3       010NORD BRASIL ON           R$  000000000700000000000071000000000007000000000000700400000000071000000000007000000000000719900009000000000000002100000000000014710000000000000000009999123100000010000000000000BRBNBRACNOR8200
012021033196BNBR3F      020NORD BRASIL ON           R$  000000000696500000000071140000000006965000000000706400000000071140000000007049000000000714300002000000000000000003000000000000021193000000000000009999123100000010000000000000BRBNBRACNOR8200
012021033102BNDA39      010MSCI INDIA  DRN          R$  000000000600900000000060400000000005942000000000597700000000059420000000005931000000000621700015000000000000000934000000000005583400000000000000009999123100000010000000000000BRBNDABDR004101
012021033112BNFS11      010FII BANRISULCI           R$  000000001230900000000124100000000012200000000001237300000000124000000000012369000000001240400099000000000000000834000000000010319874000000000000009999123100000010000000000000BRBNFSCTF000202
012021033102BOAC34      010BANK AMERICADRN          R$  000000000560000000000056240000000005435000000000549300000000054780000000005472000000000547801451000000000000035552000000000195297103000000000000009999123100000010000000000000BRBOACBDR004143
012021033102BOAS3       010BOA VISTA   ON      NM   R$  000000000120000000000012150000000001148000000000116800000000011510000000001149000000000115102128000000000000415800000000000485782200000000000000009999123100000010000000000000BRBOASACNOR6100
012021033196BOAS3F      020BOA VISTA   ON      NM   R$  000000000120000000000012120000000001140000000000117700000000011750000000001148000000000117500077000000000000001663000000000001957390000000000000009999123100000010000000000000BRBOASACNOR6100
012021033102BOBR4       010BOMBRIL     PN           R$  000000000023800000000002490000000000235000000000024100000000002390000000000237000000000023900325000000000000174800000000000042254900000000000000009999123100000010000000000000BRBOBRACNPR3128
012021033196BOBR4F      020BOMBRIL     PN           R$  000000000024300000000002500000000000235000000000024200000000002430000000000236000000000024300291000000000000003417000000000000828293000000000000009999123100000010000000000000BRBOBRACNPR3128
012021033102BOEI34      010BOEING      DRN          R$  000000014470000000001455000000000144000000000014475800000001453000000000143102000000015581000007000000000000000077000000000011146400000000000000009999123100000010000000000000BRBOEIBDR003132
012021033102BONY34      010BNY MELLON  DRN          R$  000000002704000000000270400000000026750000000002688100000000268600000000026500000000000000000018000000000000000182000000000004892503000000000000009999123100000010000000000000BRBONYBDR001122
012021033114BOVA11      010ISHARES BOVACI           R$  000000001123700000000112830000000011147000000001121200000000112020000000011202000000001120500013000000000008454545000000094795628074000000000000009999123100000010000000000000BRBOVACTF003105
012021033114BOVB11      010ETF BRA IBOVCI           R$  000000001169900000000117500000000011611000000001166800000000116670000000011600000000001170001099000000000000252534000000002946776461000000000000009999123100000010000000000000BRBOVBCTF001100
012021033114BOVV11      010IT NOW IBOV CI           R$  000000001173000000000117850000000011642000000001170300000000117060000000011706000000001176525994000000000002222374000000026010147277000000000000009999123100000010000000000000BRBOVVCTF009100
012021033102BOXP34      010BOSTON PROP DRN ED       R$  000000000598000000000059800000000005700000000000580900000000057370000000005650000000000000000009000000000000000425000000000002469182000000000000009999123100000010000000000000BRBOXPBDR008123
012021033102BPAC3       010BTGP BANCO  ON      N2   R$  000000000442500000000047210000000004423000000000458400000000047210000000004611000000000472100036000000000000003700000000000016964300000000000000009999123100000010000000000000BRBPACACNOR7123
012021033196BPAC3F      020BTGP BANCO  ON      N2   R$  000000000470000000000047000000000004460000000000461200000000046500000000004650000000000470000061000000000000000439000000000002025028000000000000009999123100000010000000000000BRBPACACNOR7123
012021033102BPAC5       010BTGP BANCO  PNA     N2   R$  000000000250000000000025330000000002476000000000251200000000025200000000002490000000000252000032000000000000005700000000000014323000000000000000009999123100000010000000000000BRBPACACNPA0123
012021033196BPAC5F      020BTGP BANCO  PNA     N2   R$  000000000256000000000025600000000002471000000000250700000000024710000000002475000000000253000042000000000000000259000000000000649428000000000000009999123100000010000000000000BRBPACACNPA0123
012021033102BPAC11      010BTGP BANCO  UNT     N2   R$  000000000974000000000097410000000009500000000000963300000000097050000000009700000000000970519777000000000004035100000000038873536100000000000000009999123100000010000000000000BRBPACUNT006108
012021033196BPAC11F     020BTGP BANCO  UNT     N2   R$  000000000973700000000098000000000009510000000000966200000000098000000000009797000000000980003051000000000000062031000000000599381255000000000000009999123100000010000000000000BRBPACUNT006108
012021033102BPAN4       010BANCO PAN   PN      N1   R$  000000000108600000000011130000000001074000000000109800000000010990000000001092000000000109908131000000000005810700000000006380159700000000000000009999123100000010000000000000BRBPANACNPR1110
012021033196BPAN4F      020BANCO PAN   PN      N1   R$  000000000108400000000011110000000001073000000000109300000000010950000000001093000000000109500781000000000000016136000000000017642639000000000000009999123100000010000000000000BRBPANACNPR1110
012021033112BPFF11      010FII ABSOLUTOCI           R$  000000000772100000000077410000000007658000000000768700000000076990000000007685000000000769903057000000000000011921000000000091647147000000000000009999123100000010000000000000BRBPFFCTF002197
012021033112BPML11      010FII BTG SHOPCI           R$  000000000884500000000088900000000008710000000000876700000000088840000000008790000000000888400314000000000000001358000000000011906791000000000000009999123100000010000000000000BRBPMLCTF006106
012021033112BPRP11      010FII BRLPROP CI           R$  000000001141200000000114120000000011100000000001123600000000112010000000011201000000001130100017000000000000000230000000000002584485000000000000009999123100000010000000000000BRBPRPCTF006120
012021033102BRAP3       010BRADESPAR   ON      N1   R$  000000000588300000000059390000000005705000000000580600000000058160000000005816000000000586700709000000000000131300000000000762414600000000000000009999123100000010000000000000BRBRAPACNOR5137
012021033196BRAP3F      020BRADESPAR   ON      N1   R$  000000000587500000000059990000000005715000000000584700000000059990000000005876000000000599900146000000000000002244000000000013122235000000000000009999123100000010000000000000BRBRAPACNOR5137
012021033102BRAP4       010BRADESPAR   PN      N1   R$  000000000683500000000069220000000006713000000000682300000000068310000000006831000000000684117892000000000003383000000000023084989400000000000000009999123100000010000000000000BRBRAPACNPR2137
012021033196BRAP4F      020BRADESPAR   PN      N1   R$  000000000685900000000069210000000006717000000000682400000000068430000000006843000000000686201540000000000000021990000000000150074414000000000000009999123100000010000000000000BRBRAPACNPR2137
012021033114BRAX11      010ISHARES BRAXCI           R$  000000000987400000000098750000000009773000000000985900000000098750000000009801000000000987500031000000000000004334000000000042730570000000000000009999123100000010000000000000BRBRAXCTF002100
012021033112BRCO11      010FII BRESCO  CI           R$  000000001102600000000111920000000011020000000001110000000000111500000000011150000000001117102531000000000000023530000000000261196273000000000000009999123100000010000000000000BRBRCOCTF007116
012021033112BRCR11      010FII BC FUND CI           R$  000000000819200000000082240000000008155000000000819100000000082000000000008200000000000820102841000000000000035084000000000287389537000000000000009999123100000010000000000000BRBRCRCTF000227
012021033102BRDT3       010PETROBRAS BRON      NM   R$  000000000222300000000022320000000002183000000000220300000000022080000000002200000000000220820048000000000006383600000000014069145200000000000000009999123100000010000000000000BRBRDTACNOR1121
012021033196BRDT3F      020PETROBRAS BRON      NM   R$  000000000222500000000022340000000002181000000000220200000000022170000000002196000000000221700767000000000000010756000000000023695427000000000000009999123100000010000000000000BRBRDTACNOR1121
012021033102BRFS3       010BRF SA      ON      NM   R$  000000000250700000000025470000000002478000000000250400000000025220000000002521000000000252220131000000000006458600000000016173595700000000000000009999123100000010000000000000BRBRFSACNOR8119
012021033196BRFS3F      020BRF SA      ON      NM   R$  000000000252500000000025450000000002479000000000250300000000025250000000002509000000000252500831000000000000013618000000000034098769000000000000009999123100000010000000000000BRBRFSACNOR8119
012021033102BRGE3       010ALFA CONSORCON           R$  000000000091500000000009170000000000915000000000091600000000009170000000000916000000000094500002000000000000003900000000000003576100000000000000009999123100000010000000000000BRBRGEACNOR6202
012021033196BRGE3F      020ALFA CONSORCON           R$  000000000090700000000009490000000000907000000000091200000000009490000000000907000000000094900005000000000000000045000000000000041066000000000000009999123100000010000000000000BRBRGEACNOR6202
012021033102BRGE5       010ALFA CONSORCPNA          R$  000000000144100000000014410000000001441000000000144100000000014410000000001430000000000145100001000000000000000100000000000000144100000000000000009999123100000010000000000000BRBRGEACNPA9212
012021033196BRGE5F      020ALFA CONSORCPNA          R$  000000000146800000000014680000000001451000000000145600000000014510000000001452000000000166000004000000000000000030000000000000043700000000000000009999123100000010000000000000BRBRGEACNPA9212
012021033196BRGE6F      020ALFA CONSORCPNB          R$  000000000165000000000016500000000001649000000000164900000000016490000000001078000000000164900002000000000000000002000000000000003299000000000000009999123100000010000000000000BRBRGEACNPB7213
012021033196BRGE7F      020ALFA CONSORCPNC          R$  000000000050000000000005000000000000500000000000050000000000005000000000000472000000000000000001000000000000000001000000000000000500000000000000009999123100000010000000000000BRBRGEACNPC5214
012021033196BRGE11F     020ALFA CONSORCPNE          R$  000000000101200000000010120000000001012000000000101200000000010120000000001013000000000134800001000000000000000006000000000000006072000000000000009999123100000010000000000000BRBRGEACNPE1106
012021033196BRGE12F     020ALFA CONSORCPNF          R$  000000000061100000000006110000000000604000000000060900000000006100000000000611000000000061800004000000000000000068000000000000041414000000000000009999123100000010000000000000BRBRGEACNPF8096
012021033102BRIV3       010ALFA INVEST ON           R$  000000000099900000000009990000000000999000000000099900000000009990000000000922000000000099900003000000000000022300000000000022277700000000000000009999123100000010000000000000BRBRIVACNOR6206
012021033196BRIV3F      020ALFA INVEST ON           R$  000000000094500000000009470000000000934000000000094100000000009470000000000935000000000097000007000000000000000133000000000000125169000000000000009999123100000010000000000000BRBRIVACNOR6206
012021033102BRIV4       010ALFA INVEST PN           R$  000000000086200000000008620000000000861000000000086100000000008610000000000862000000000090000004000000000000000700000000000000603300000000000000009999123100000010000000000000BRBRIVACNPR3212
012021033196BRIV4F      020ALFA INVEST PN           R$  000000000088800000000008950000000000874000000000088500000000008740000000000860000000000086400009000000000000000036000000000000031881000000000000009999123100000010000000000000BRBRIVACNPR3212
012021033102BRKM3       010BRASKEM     ON      N1   R$  000000000381000000000039200000000003735000000000379600000000038500000000003840000000000385200256000000000000056600000000000214864900000000000000009999123100000010000000000000BRBRKMACNOR1117
012021033196BRKM3F      020BRASKEM     ON      N1   R$  000000000381000000000039160000000003746000000000383900000000038380000000003798000000000383800168000000000000001703000000000006538483000000000000009999123100000010000000000000BRBRKMACNOR1117
012021033102BRKM5       010BRASKEM     PNA     N1   R$  000000000406000000000040920000000003930000000000399700000000039690000000003969000000000397319566000000000003918800000000015665824800000000000000009999123100000010000000000000BRBRKMACNPA4117
012021033196BRKM5F      020BRASKEM     PNA     N1   R$  000000000407800000000040890000000003930000000000398100000000039430000000003943000000000395601964000000000000033472000000000133278066000000000000009999123100000010000000000000BRBRKMACNPA4117
012021033102BRKM6       010BRASKEM     PNB     N1   R$  000000000210000000000021000000000002100000000000210000000000021000000000002058000000000215000001000000000000000100000000000000210000000000000000009999123100000010000000000000BRBRKMACNPB2113
012021033102BRML3       010BR MALLS PARON      NM   R$  000000000101700000000010290000000001005000000000101400000000010120000000001012000000000101328061000000000010988600000000011142708500000000000000009999123100000010000000000000BRBRMLACNOR9115
012021033196BRML3F      020BR MALLS PARON      NM   R$  000000000102300000000010290000000001003000000000101500000000010090000000001009000000000101500964000000000000020425000000000020735471000000000000009999123100000010000000000000BRBRMLACNOR9115
012021033102BRPR3       010BR PROPERT  ON  ED  NM   R$  000000000087900000000008800000000000852000000000086000000000008600000000000857000000000086004818000000000002284400000000001965643800000000000000009999123100000010000000000000BRBRPRACNOR9120
012021033196BRPR3F      020BR PROPERT  ON  ED  NM   R$  000000000086700000000008790000000000853000000000086100000000008660000000000856000000000086600371000000000000006650000000000005729542000000000000009999123100000010000000000000BRBRPRACNOR9120
012021033102BRSR3       010BANRISUL    ON      N1   R$  000000000139600000000013970000000001370000000000138400000000013900000000001376000000000139100030000000000000004900000000000006781800000000000000009999123100000010000000000000BRBRSRACNOR3172
012021033196BRSR3F      020BANRISUL    ON      N1   R$  000000000140500000000014110000000001375000000000139700000000014090000000001380000000000139200075000000000000000715000000000000999542000000000000009999123100000010000000000000BRBRSRACNOR3172
012021033196BRSR5F      020BANRISUL    PNA     N1   R$  000000000180000000000018990000000001739000000000178000000000018990000000001739000000000189900006000000000000000035000000000000062306000000000000009999123100000010000000000000BRBRSRACNPA6176
012021033102BRSR6       010BANRISUL    PNB     N1   R$  000000000122300000000012260000000001202000000000120900000000012040000000001204000000000120609108000000000002467600000000002983759700000000000000009999123100000010000000000000BRBRSRACNPB4175
012021033196BRSR6F      020BANRISUL    PNB     N1   R$  000000000122000000000012290000000001202000000000121100000000012100000000001210000000000121101678000000000000020536000000000024872921000000000000009999123100000010000000000000BRBRSRACNPB4175
012021033114BRZP11      010FIP BRZ IE  CI           R$  000000000721000000000072850000000007117000000000719900000000071900000000007118000000000719001294000000000000013883000000000099954030000000000000009999123100000010000000000000BRBRZPCTF005113
012021033102BSEV3       010BIOSEV      ON      NM   R$  000000000078800000000007880000000000738000000000076000000000007480000000000748000000000075900554000000000000149600000000000113769400000000000000009999123100000010000000000000BRBSEVACNOR3102
012021033196BSEV3F      020BIOSEV      ON      NM   R$  000000000078600000000008000000000000743000000000076200000000007480000000000757000000000076200322000000000000005795000000000004418683000000000000009999123100000010000000000000BRBSEVACNOR3102
012021033102BSLI3       010BRB BANCO   ON           R$  000000000491100000000049300000000004911000000000491600000000049300000000004911000000000499500005000000000000000900000000000004424500000000000000009999123100000010000000000000BRBSLIACNOR5181
012021033196BSLI3F      020BRB BANCO   ON           R$  000000000495500000000049990000000004720000000000485800000000049380000000004861000000000493800020000000000000000186000000000000903596000000000000009999123100000010000000000000BRBSLIACNOR5181
012021033102BSLI4       010BRB BANCO   PN           R$  000000000330000000000034020000000003300000000000335700000000033700000000003301000000000348500008000000000000001100000000000003693200000000000000009999123100000010000000000000BRBSLIACNPR2181
012021033196BSLI4F      020BRB BANCO   PN           R$  000000000349800000000034980000000003305000000000336700000000034670000000003372000000000349700044000000000000000543000000000001828529000000000000009999123100000010000000000000BRBSLIACNPR2181
012021033102BSLV39      010SILVER TRUSTDRN          R$  000000000428500000000043000000000004248000000000426200000000042700000000004260000000000427000045000000000000059605000000000254064068000000000000009999123100000010000000000000BRBSLVBDR002100
012021033112BTAL11      010FII BTG AGROCI           R$  000000001027500000000103800000000010265000000001030900000000103800000000010365000000001038001143000000000000006175000000000063659927000000000000009999123100000010000000000000BRBTALCTF003101
012021033112BTCR11      010FII BTG CRI CI           R$  000000000920200000000092940000000009180000000000921300000000092400000000009237000000000923900195000000000000003360000000000030958343000000000000009999123100000010000000000000BRBTCRCTF006136
012021033112BTLG11      010FII BTLG    CI           R$  000000001149500000000115380000000011385000000001144900000000114710000000011455000000001147104598000000000000043398000000000496879976000000000000009999123100000010000000000000BRBTLGCTF000119
012021033102BTOW3       010B2W DIGITAL ON      NM   R$  000000000620500000000062700000000006075000000000613600000000060750000000006075000000000608512046000000000002574900000000015801082200000000000000009999123100000010000000000000BRBTOWACNOR8111
012021033196BTOW3F      020B2W DIGITAL ON      NM   R$  000000000620900000000062900000000006081000000000614300000000060840000000006082000000000608401134000000000000017312000000000106351494000000000000009999123100000010000000000000BRBTOWACNOR8111
012021033102BTTL3       010BATTISTELLA ON           R$  000000000096300000000009630000000000963000000000096300000000009630000000000935000000000100000002000000000000000200000000000000192600000000000000009999123100000010000000000000BRBTTLACNOR0108
012021033196BTTL3F      020BATTISTELLA ON           R$  000000000095800000000009630000000000946000000000094900000000009630000000000955000000000102300006000000000000000042000000000000039863000000000000009999123100000010000000000000BRBTTLACNOR0108
012021033102BUSM39      010MSCI US MVOLDRN ED       R$  000000000488800000000048880000000004883000000000488300000000048830000000004880000000000503700002000000000000000272000000000001328281000000000000009999123100000010000000000000BRBUSMBDR002102
012021033105BZLI11      010FII BRREALTYCI           R$  000000000152000000000015800000000001520000000000155900000000015700000000001560000000000157000586000000000000119431000000000186286492000000000000009999123100000010000000000000BRBZLICTF003100
012021033102C1AB34      010CABLE ONE INDRN          R$  000000000512000000000051200000000005120000000000512000000000051200000000000000000000000000000001000000000000000001000000000000005120000000000000009999123100000010000000000000BRC1ABBDR009102
012021033102C1BS34      010VIACOMCBS   DRN          R$  000000002760000000000276000000000024900000000002554200000000252700000000025270000000002644100243000000000000014077000000000359566369000000000000009999123100000010000000000000BRC1BSBDR001106
012021033102C1CI34      010CROWN CASTLEDRN          R$  000000002444000000000244400000000024147000000002429300000000241470000000000000000000000000000002000000000000000030000000000000728805000000000000009999123100000010000000000000BRC1CIBDR000105
012021033102C1CL34      010CARNIVAL CORDRN          R$  000000001537000000000153700000000014818000000001497700000000149750000000014809000000001497500019000000000000002503000000000037488792000000000000009999123100000010000000000000BRC1CLBDR004101
012021033102C1DW34      010CDW CORP    DRN          R$  000000000465400000000046540000000004654000000000465400000000046540000000000000000000000000000001000000000000000009000000000000041886000000000000009999123100000010000000000000BRC1DWBDR009102
012021033102C1FG34      010CITIZENS FINDRN          R$  000000002558000000000255800000000025580000000002558000000000255800000000002000000000000000000001000000000000000021000000000000537180000000000000009999123100000010000000000000BRC1FGBDR007104
012021033102C1HI34      010CHINA PETROLDRN          R$  000000000513000000000051300000000004970000000000499600000000049710000000004822000000000506500014000000000000000295000000000001474027000000000000009999123100000010000000000000BRC1HIBDR009100
012021033102C1HK34      010CHECK POINT DRN          R$  000000003190000000000319000000000031900000000003190000000000319000000000000000000000000000000002000000000000000010000000000000319000000000000000009999123100000010000000000000BRC1HKBDR005100
012021033102C1IC34      010CIGNA CORP  DRN          R$  000000003430000000000343500000000034260000000003432400000000342600000000000000000000000000000005000000000000000050000000000001716226000000000000009999123100000010000000000000BRC1ICBDR000102
012021033102C1MA34      010COMERICA INCDRN          R$  000000002045000000000204500000000020410000000002043900000000204100000000000000000000000000000002000000000000000058000000000001185500000000000000009999123100000010000000000000BRC1MABDR006105
012021033102C1MG34      010CHIPOTLE MEXDRN          R$  000000004074000000000407400000000040740000000004074000000000407400000000035000000000000000000001000000000000000010000000000000407400000000000000009999123100000010000000000000BRC1MGBDR003100
012021033102C1MI34      010CUMMINS INC DRN          R$  000000003770000000000377000000000036990000000003734500000000369900000000000000000000000000000002000000000000000004000000000000149380000000000000009999123100000010000000000000BRC1MIBDR009105
012021033102C1MS34      010CMS ENERGY CDRN          R$  000000001720000000000172000000000017200000000001720000000000172000000000014500000000000000000001000000000000000006000000000000103200000000000000009999123100000010000000000000BRC1MSBDR008105
012021033102C1NS34      010CELANESE CORDRN          R$  000000004340000000000434000000000042680000000004304000000000426800000000040108000000007500000002000000000000000004000000000000172160000000000000009999123100000010000000000000BRC1NSBDR006105
012021033102C1OU34      010COUPA SOFTWADRN          R$  000000000484200000000048850000000004770000000000481700000000047960000000004500000000000541500021000000000000008376000000000040350192000000000000009999123100000010000000000000BRC1OUBDR000100
012021033102C1SU34      010CREDIT SUISSDRN          R$  000000000316000000000031600000000002969000000000300300000000029900000000002982000000000299000276000000000000037437000000000112455447000000000000009999123100000010000000000000BRC1SUBDR001101
012021033102C1TV34      010CORTEVA INC DRN          R$  000000000673900000000067390000000006605000000000662900000000066050000000006500000000000000000008000000000000000704000000000004667044000000000000009999123100000010000000000000BRC1TVBDR007102
012021033102CAJI34      010CANON INC   DRN          R$  000000001322000000000132720000000013220000000001326100000000132720000000011100000000001327200002000000000000000025000000000000331540000000000000009999123100000010000000000000BRCAJIBDR009103
012021033102CAMB3       010CAMBUCI     ON           R$  000000000044100000000004540000000000440000000000044700000000004400000000000440000000000044100100000000000000061600000000000027549900000000000000009999123100000010000000000000BRCAMBACNOR4119
012021033196CAMB3F      020CAMBUCI     ON           R$  000000000044700000000004860000000000434000000000044600000000004400000000000439000000000045500051000000000000000718000000000000320876000000000000009999123100000010000000000000BRCAMBACNOR4119
012021033102CAML3       010CAMIL       ON  EJ  NM   R$  000000000102400000000010280000000001016000000000102000000000010230000000001023000000000102404708000000000001662000000000001696597600000000000000009999123100000010000000000000BRCAMLACNOR3114
012021033196CAML3F      020CAMIL       ON  EJ  NM   R$  000000000102200000000010280000000001016000000000102100000000010280000000001023000000000102800968000000000000013271000000000013550753000000000000009999123100000010000000000000BRCAMLACNOR3114
012021033102CAPH34      010CAPRI HOLDI DRN          R$  000000002896700000000289670000000028967000000002896700000000289670000000026500000000003020000001000000000000000140000000000004055380000000000000009999123100000010000000000000BRCAPHBDR008100
012021033102CARD3       010CSU CARDSYSTON      NM   R$  000000000170400000000017950000000001704000000000176000000000017850000000001785000000000178600918000000000000234900000000000413572100000000000000009999123100000010000000000000BRCARDACNOR9121
012021033196CARD3F      020CSU CARDSYSTON      NM   R$  000000000170800000000017890000000001700000000000176100000000017700000000001770000000000178700307000000000000005784000000000010187641000000000000009999123100000010000000000000BRCARDACNOR9121
012021033112CARE11      010FII DEA CARECI           R$  000000000005500000000000550000000000053000000000005400000000000540000000000054000000000005500207000000000000103791000000000005612830000000000000009999123100000010000000000000BRCARECTF000105
012021033102CASH3       010MELIUZ      ON      NM   R$  000000000250000000000025500000000002432000000000249700000000024600000000002460000000000246209393000000000002894000000000007226328900000000000000009999123100000010000000000000BRCASHACNOR8100
012021033196CASH3F      020MELIUZ      ON      NM   R$  000000000248700000000025460000000002435000000000249900000000024800000000002450000000000248003677000000000000066439000000000166073416000000000000009999123100000010000000000000BRCASHACNOR8100
012021033102CATP34      010CATERPILLAR DRN          R$  000000000849400000000084940000000008110000000000821000000000081750000000008175000000000818800041000000000000003945000000000032389344000000000000009999123100000010000000000000BRCATPBDR003139
012021033196CBEE3F      020AMPLA ENERG ON           R$  000000000164900000000016500000000001649000000000164900000000016500000000001511000000000161200002000000000000000010000000000000016497000000000000009999123100000010000000000000BRCBEEACNOR3155
012021033112CBOP11      010FII C BRANCOCI           R$  000000000748300000000079900000000007467000000000768200000000077430000000007517000000000774200088000000000000001979000000000015203391000000000000009999123100000010000000000000BRCBOPCTF001191
012021033102CCPR3       010CYRE COM-CCPON      NM   R$  000000000117500000000011750000000001139000000000115400000000011640000000001150000000000116501628000000000000404500000000000467180400000000000000009999123100000010000000000000BRCCPRACNOR9115
012021033196CCPR3F      020CYRE COM-CCPON      NM   R$  000000000117000000000011700000000001139000000000115300000000011650000000001156000000000116500137000000000000002942000000000003393326000000000000009999123100000010000000000000BRCCPRACNOR9115
012021033102CCRO3       010CCR SA      ON      NM   R$  000000000121500000000012950000000001212000000000124000000000012920000000001290000000000129229191000000000036083700000000044760427400000000000000009999123100000010000000000000BRCCROACNOR2138
012021033196CCRO3F      020CCR SA      ON      NM   R$  000000000121500000000012950000000001212000000000126800000000012950000000001290000000000129501488000000000000021759000000000027595878000000000000009999123100000010000000000000BRCCROACNOR2138
012021033102CEAB3       010CEA MODAS   ON      NM   R$  000000000115200000000011800000000001134000000000116500000000011780000000001178000000000117904988000000000001782000000000002077043300000000000000009999123100000010000000000000BRCEABACNOR1101
012021033196CEAB3F      020CEA MODAS   ON      NM   R$  000000000115900000000011800000000001106000000000115700000000011780000000001168000000000117800453000000000000008142000000000009423787000000000000009999123100000010000000000000BRCEABACNOR1101
012021033102CEBR3       010CEB         ON           R$  000000001997500000000199750000000018400000000001852700000000185000000000018000000000001879000051000000000000010000000000000185278700000000000000009999123100000010000000000000BRCEBRACNOR5118
012021033196CEBR3F      020CEB         ON           R$  000000001850000000000197000000000018500000000001921700000000193360000000018504000000001933600018000000000000000164000000000003151751000000000000009999123100000010000000000000BRCEBRACNOR5118
012021033102CEBR5       010CEB         PNA          R$  000000001940000000000194000000000019400000000001940000000000194000000000019000000000001940000001000000000000000100000000000001940000000000000000009999123100000010000000000000BRCEBRACNPA8117
012021033102CEBR6       010CEB         PNB          R$  000000001947200000000197000000000019472000000001960700000000197000000000018700000000001970000005000000000000000500000000000009803500000000000000009999123100000010000000000000BRCEBRACNPB6117
012021033196CEBR6F      020CEB         PNB          R$  000000001848900000000184890000000018489000000001848900000000184890000000016001000000002090000003000000000000000016000000000000295824000000000000009999123100000010000000000000BRCEBRACNPB6117
012021033102CEDO3       010CEDRO       ON      N1   R$  000000000106400000000011050000000001045000000000108700000000010480000000001045000000000108800023000000000000003300000000000003588100000000000000009999123100000010000000000000BRCEDOACNOR8096
012021033196CEDO3F      020CEDRO       ON      N1   R$  000000000103800000000011090000000001016000000000107000000000010890000000001016000000000108900040000000000000000410000000000000438954000000000000009999123100000010000000000000BRCEDOACNOR8096
012021033102CEDO4       010CEDRO       PN      N1   R$  000000000055800000000005580000000000541000000000054700000000005450000000000545000000000055300011000000000000001600000000000000876600000000000000009999123100000010000000000000BRCEDOACNPR5128
012021033196CEDO4F      020CEDRO       PN      N1   R$  000000000054100000000005500000000000541000000000054600000000005500000000000541000000000055000015000000000000000069000000000000037682000000000000009999123100000010000000000000BRCEDOACNPR5128
012021033102CEEB3       010COELBA      ON           R$  000000000398000000000039990000000003980000000000399600000000039990000000003630000000000399900002000000000000000800000000000003197300000000000000009999123100000010000000000000BRCEEBACNOR3180
012021033196CEEB3F      020COELBA      ON           R$  000000000399800000000039980000000003998000000000399800000000039980000000003975000000000399800003000000000000000003000000000000011994000000000000009999123100000010000000000000BRCEEBACNOR3180
012021033102CEED3       010CEEE-D      ON      N1   R$  000000000600000000000080020000000006000000000000723500000000076810000000006100000000000710000035000000000000004100000000000029666100000000000000009999123100000010000000000000BRCEEDACNOR9103
012021033196CEED3F      020CEEE-D      ON      N1   R$  000000000609000000000087990000000005928000000000727000000000071840000000007099000000000718400263000000000000002774000000000020169010000000000000009999123100000010000000000000BRCEEDACNOR9103
012021033102CEED4       010CEEE-D      PN      N1   R$  000000000720000000000072000000000007084000000000714200000000070840000000005000000000000708400004000000000000000400000000000002856800000000000000009999123100000010000000000000BRCEEDACNPR6103
012021033196CEED4F      020CEEE-D      PN      N1   R$  000000000709000000000071030000000007009000000000707900000000070930000000007093000000000710300015000000000000000102000000000000722092000000000000009999123100000010000000000000BRCEEDACNPR6103
012021033102CEGR3       010CEG         ON           R$  000000000600000000000060000000000006000000000000600000000000060000000000006000000000000608800001000000000000000100000000000000600000000000000000009999123100000010000000000000BRCEGRACNOR4138
012021033196CEGR3F      020CEG         ON           R$  000000000612600000000061260000000006052000000000606100000000060520000000006052000000000612600007000000000000000032000000000000193960000000000000009999123100000010000000000000BRCEGRACNOR4138
012021033112CEOC11      010FII CEO CCP CI           R$  000000000718500000000071970000000007125000000000714800000000071900000000007185000000000719200041000000000000000312000000000002230482000000000000009999123100000010000000000000BRCEOCCTF003176
012021033102CEPE5       010CELPE       PNA          R$  000000000271100000000027110000000002700000000000271000000000027110000000002651000000000271100007000000000000002500000000000006776400000000000000009999123100000010000000000000BRCEPEACNPA6164
012021033196CEPE5F      020CELPE       PNA          R$  000000000274000000000027400000000002710000000000271100000000027100000000002680000000000283000002000000000000000047000000000000127460000000000000009999123100000010000000000000BRCEPEACNPA6164
012021033102CESP3       010CESP        ON      N1   R$  000000000326600000000033390000000003249000000000329500000000033130000000003306000000000331300121000000000000035900000000000118323900000000000000009999123100000010000000000000BRCESPACNOR3170
012021033196CESP3F      020CESP        ON      N1   R$  000000000327000000000033240000000003260000000000330200000000033150000000003306000000000331500144000000000000002522000000000008328545000000000000009999123100000010000000000000BRCESPACNOR3170
012021033196CESP5F      020CESP        PNA     N1   R$  000000000380000000000038200000000003761000000000379700000000038120000000003858000000000398700012000000000000000146000000000000554494000000000000009999123100000010000000000000BRCESPACNPA6117
012021033102CESP6       010CESP        PNB     N1   R$  000000000280000000000028170000000002776000000000280100000000028160000000002810000000000281611262000000000003041900000000008521006600000000000000009999123100000010000000000000BRCESPACNPB4129
012021033196CESP6F      020CESP        PNB     N1   R$  000000000280000000000028190000000002777000000000279900000000028170000000002810000000000281701340000000000000026068000000000072968631000000000000009999123100000010000000000000BRCESPACNPB4129
012021033196CGAS3F      020COMGAS      ON           R$  000000001500000000000150000000000014350000000001461700000000143500000000014350000000001500000018000000000000000184000000000002689710000000000000009999123100000010000000000000BRCGASACNOR0153
012021033102CGAS5       010COMGAS      PNA          R$  000000001560000000000156000000000015399000000001544200000000153990000000015175000000001539900008000000000000001200000000000018530400000000000000009999123100000010000000000000BRCGASACNPA3150
012021033196CGAS5F      020COMGAS      PNA          R$  000000001544300000000155930000000015181000000001534100000000153000000000015300000000001545000027000000000000000373000000000005722552000000000000009999123100000010000000000000BRCGASACNPA3150
012021033102CGRA3       010GRAZZIOTIN  ON           R$  000000000305400000000031410000000003006000000000306400000000030510000000003050000000000312400024000000000000002900000000000008886000000000000000009999123100000010000000000000BRCGRAACNOR2072
012021033196CGRA3F      020GRAZZIOTIN  ON           R$  000000000300000000000032000000000003000000000000312100000000031000000000003062000000000310000063000000000000002329000000000007270775000000000000009999123100000010000000000000BRCGRAACNOR2072
012021033102CGRA4       010GRAZZIOTIN  PN           R$  000000000300600000000031390000000003006000000000308800000000031190000000003005000000000312000060000000000000013800000000000042623900000000000000009999123100000010000000000000BRCGRAACNPR9072
012021033196CGRA4F      020GRAZZIOTIN  PN           R$  000000000301500000000031370000000003015000000000307700000000031200000000003100000000000312000107000000000000001224000000000003766779000000000000009999123100000010000000000000BRCGRAACNPR9072
012021033102CHCM34      010CHARTER COMMDRN          R$  000000000603500000000061100000000005800000000000588400000000061100000000005753000000000611100030000000000000007450000000000043836803000000000000009999123100000010000000000000BRCHCMBDR001101
012021033102CHME34      010CME GROUP   DRN          R$  000000002900100000000290500000000029001000000002902500000000290500000000028000000000000000000002000000000000000004000000000000116102000000000000009999123100000010000000000000BRCHMEBDR007109
012021033102CHVX34      010CHEVRON     DRN          R$  000000000612200000000061220000000005908000000000595600000000059250000000005916000000000592500221000000000000037748000000000224831277000000000000009999123100000010000000000000BRCHVXBDR008141
012021033102CIEL3       010CIELO       ON      NM   R$  000000000037100000000003930000000000370000000000037900000000003720000000000372000000000037330049000000000089490800000000033968071400000000000000009999123100000010000000000000BRCIELACNOR3144
012021033196CIEL3F      020CIELO       ON      NM   R$  000000000036500000000003920000000000365000000000037900000000003740000000000373000000000037406535000000000000113085000000000042968423000000000000009999123100000010000000000000BRCIELACNOR3144
012021033112CJCT11      010FII CJCTOWERCI           R$  000000000645000000000064500000000006140000000000616000000000061400000000006140000000000620000156000000000000000536000000000003302203000000000000009999123100000010000000000000BRCJCTCTF001100
012021033196CLSC3F      020CELESC      ON      N2   R$  000000000580000000000061990000000005800000000000599900000000061990000000005512000000000619900002000000000000000002000000000000011999000000000000009999123100000010000000000000BRCLSCACNOR6137
012021033102CLSC4       010CELESC      PN      N2   R$  000000000584800000000059240000000005760000000000583300000000059240000000005783000000000592500017000000000000002500000000000014582600000000000000009999123100000010000000000000BRCLSCACNPR3116
012021033196CLSC4F      020CELESC      PN      N2   R$  000000000589700000000059680000000005732000000000578500000000058450000000005807000000000584500025000000000000000099000000000000572751000000000000009999123100000010000000000000BRCLSCACNPR3116
012021033102CMCS34      010COMCAST     DRN          R$  000000000640000000000064000000000006089000000000613200000000061220000000006100000000000612200082000000000000043576000000000267237438000000000000009999123100000010000000000000BRCMCSBDR008138
